:10000000006B016B026B036B046B056B066B076B7C
:10001000936A946A956A96688A688B688C681BEC08
:1000200000F08A6A8B6A8C6A990E046F40EC00F0CB
:1000300024EC00F0FBD7040E026F022FFED7003F26
:10004000FAD7013FF8D71200033F1200043F120015
:10005000990E046F8C7006A107D0FF0E8B6004D040
:100060008B42800E8B2601D08B6A07A107D0FF0E32
:100070008A6004D08A46010E8A2601D08A6A12005C
:1000800005A103D084B001D0067105A303D084B2CA
:0A00900001D0077184CF05F01200C3
:020000040001F9
:04FFFC0000EF00F022
:020000040030CA
:0600010006191EF38381C5
:06000800FFC0FFE0FF4015
:00000001FF
