:020000040000FA
:0400000007EF00F016
:1000080055828BED08F054EF09F0000E0001716F76
:10001800000E706F4D50011804E14E500218D8B40C
:1000280007D04D50051850E14E500618D8A44CD0B2
:10003800000E736F000E726F000E756F000E746FF6
:100048000ABE1CD00A5003E10904D8A017D0000E3C
:10005800736F010E726F09C04FF0FF0E4F2672C00A
:1000680050F073C051F04F2A03D0D8905036513613
:100078004F2EFBD750C072F051C073F00EBE1DD08A
:100088000E5003E10D04D8A018D0000E0001756FC2
:10009800010E746F0DC04FF0FF0E4F2674C050F064
:1000A80075C051F04F2A03D0D890503651364F2E94
:1000B800FBD750C074F051C075F000017251741133
:1000C800706F73517511716F4D50031804E14E50E4
:1000D8000418D8B407D04D50071850E14E500818EE
:1000E800D8A44CD0000E776F000E766F000E796F93
:1000F800000E786F0CBE1CD00C5003E10B04D8A086
:1001080017D0000E776F010E766F0BC04FF0FF0E01
:100118004F2676C050F077C051F04F2A03D0D890C0
:10012800503651364F2EFBD750C076F051C077F07D
:1001380010BE1DD0105003E10F04D8A018D0000E37
:100148000001796F010E786F0FC04FF0FF0E4F2638
:1001580078C050F079C051F04F2A03D0D89050366B
:1001680051364F2EFBD750C078F051C079F00001BE
:1001780076517811706F77517911716F70C04DF0A9
:1001880071C04EF01200F29E3D043E10D8A48CD0EF
:10019800D2EC05F052505310D8B406D0F28E000EAF
:1001A8003E6E000E3D6E1200000E2E6E000E2D6E7D
:1001B800000E2C6E000E2B6E000E2A6E000E296E9D
:1001C800000E286E000E276E000E246E000E236EA1
:1001D80023C021F024C022F0000E206E000E1F6EF6
:1001E8001FC064F020C065F0000E1E6E000E1D6E6C
:1001F8001DC062F01EC063F0000E1C6E000E1B6E68
:100208001BC060F01CC061F0000E4E6E010E4D6EFA
:1002180009EC00F011504D10116E12504E10126E74
:10022800000E4E6E020E4D6E09EC00F013504D108C
:10023800136E14504E10146E000E4E6E030E4D6E5B
:1002480009EC00F015504D10156E16504E10166E34
:10025800000E4E6E040E4D6E09EC00F017504D1056
:10026800176E18504E10186EF7EC08F0010E312476
:100278004D6E000E32204E6E000E506E030E4F6E05
:10028800CDEC06F04DC031F04EC032F03AEC05F03E
:10029800670ED76E690ED66E000E3E6E000E3D6E6E
:1002A800000E406E000E3F6EF28E1200000E00012E
:1002B800676F000E666F000E696F000E686F000EA4
:1002C8006B6F000E6A6F000E6D6F000E6C6F000E84
:1002D8001A6E000E196E000E266E000E256E000EA8
:1002E800286E000E276E000E2A6E000E296E000E74
:1002F8002C6E000E2B6E000E2E6E000E2D6E000E54
:10030800306E000E2F6E000E326E000E316E000E33
:10031800346E000E336E33C035F034C036F035C05D
:100328003BF036C03CF03BC03DF03CC03EF03DC029
:100338003FF03EC040F03FC06EF040C06FF00F0E7F
:10034800C16EF29E000E896E000E8A6E000E8B6ED4
:10035800000E8C6E000E8D6E000E8E6E000E806E7E
:10036800000E816E000E826E000E836E000E846E8B
:10037800000E856E0F0E926E600E936E000E946ED8
:10038800000E956E000E966E000E976E000E8F6E24
:10039800000E866E000E986E000E906E000E876E30
:1003A800000E996E000E9A6E3F0E916E0F0E876EBC
:1003B800000E186E000E176E17C015F018C016F054
:1003C80015C013F016C014F013C011F014C012F0C9
:1003D80012003B503C10D8B4120031503210D8B43F
:1003E800120031043210D8B4120019501A10D8A4CF
:1003F80013D0010E09240D6E000E0A200E6E01C0E6
:1004080005F002C006F0000E0A6E000E096E000E1E
:10041800026E000E016E46D019041A10D8A413D02B
:10042800FF0E0324016EFF0E0420026E0BC009F0BC
:100438000CC00AF0000E046E000E036E000E0C6E67
:10044800000E0B6E2FD0020E19181A10D8A413D054
:10045800FF0E0F240B6EFF0E10200C6E07C003F06A
:1004680008C004F0000E106E000E0F6E000E086E2D
:10047800000E076E17D0030E19181A10D8A412D040
:100488000DC00FF00EC010F0010E0524076E000E0F
:100498000620086E000E066E000E056E000E0E6E2B
:1004A800000E0D6E000E3C6E000E3B6E010E192400
:1004B8004D6E000E1A204E6E030E4D14196E1A6AF8
:1004C800120054D080A61200000E0001616F010EC8
:1004D800606F120080A603D01B4A1C2A09D0000EA8
:1004E8001C6E000E1B6E000E0001616F000E606F27
:1004F8001CBE12001C5004E1970E1B5CD8A0120011
:10050800000E0001616F020E606F000E1C6E000E7F
:100518001B6E000E2E6E010E2D6E120080B612009C
:10052800000E0001616F030E606F120080B603D0E9
:100538001B4A1C2A09D0000E1C6E000E1B6E000EF2
:100548000001616F020E606F1CBE12001C5004E1B6
:10055800970E1B5CD8A01200000E0001616F000E00
:10056800606F000E1C6E000E1B6E120060C04DF016
:1005780061C04EF04E50000AD8A412004D50000A37
:10058800D8B4A0D7010AD8B4A5D7030AD8B4C6D717
:10059800010AD8A41200CAD754D080A41200000EB1
:1005A8000001636F010E626F120080A403D01D4A20
:1005B8001E2A09D0000E1E6E000E1D6E000E0001D0
:1005C800636F000E626F1EBE12001E5004E1970E8C
:1005D8001D5CD8A01200000E0001636F020E626F4E
:1005E800000E1E6E000E1D6E000E286E010E276E88
:1005F800120080B41200000E0001636F030E626FD8
:10060800120080B403D01D4A1E2A09D0000E1E6EA7
:10061800000E1D6E000E0001636F020E626F1EBE9B
:1006280012001E5004E1970E1D5CD8A01200000EA7
:100638000001636F000E626F000E1E6E000E1D6ECD
:10064800120062C04DF063C04EF04E50000AD8A4AC
:1006580012004D50000AD8B4A0D7010AD8B4A5D7C3
:10066800030AD8B4C6D7010AD8A41200CAD754D0EE
:1006780080A21200000E0001656F010E646F120067
:1006880080A203D01F4A202A09D0000E206E000E37
:100698001F6E000E0001656F000E646F20BE120011
:1006A800205004E1970E1F5CD8A01200000E000134
:1006B800656F020E646F000E206E000E1F6E000E36
:1006C8002A6E010E296E120080B21200000E00017F
:1006D800656F030E646F120080B203D01F4A202A90
:1006E80009D0000E206E000E1F6E000E0001656F0F
:1006F800020E646F20BE1200205004E1970E1F5CAA
:10070800D8A01200000E0001656F000E646F000E85
:10071800206E000E1F6E120064C04DF065C04EF0D2
:100728004E50000AD8A412004D50000AD8B4A0D7E1
:10073800010AD8B4A5D7030AD8B4C6D7010AD8A4E1
:100748001200CAD72FC04DF030C04EF0000E506EC8
:100758000A0E4F6ECDEC06F04DC053F04EC054F06B
:1007680053505410D8A402D03F0E3DD05304541017
:10077800D8A402D0060E37D0020E53185410D8A4AD
:1007880002D05B0E30D0030E53185410D8A402D0F8
:100798004F0E29D0040E53185410D8A402D0660E58
:1007A80022D0050E53185410D8A402D06D0E1BD0B9
:1007B800060E53185410D8A402D07D0E14D0070E7C
:1007C80053185410D8A402D0070E0DD0080E531891
:1007D8005410D8A402D07F0E06D0090E5318541016
:1007E800D8A402D06F0E916E080E906E010E2524CB
:1007F8004D6E000E26204E6E000E506E030E4F6E8C
:10080800CDEC06F04DC025F04EC026F012004ED0BB
:1008180080A01200000E226E010E216E120080A030
:1008280003D0234A242A08D0000E246E000E236E1B
:10083800000E226E000E216E24BE1200245004E128
:10084800970E235CD8A01200000E226E020E216EB5
:10085800000E246E000E236E000E2C6E010E2B6E01
:10086800120080B01200000E226E030E216E1200DC
:1008780080B003D0234A242A08D0000E246E000E2C
:10088800236E000E226E020E216E24BE120024502A
:1008980004E1970E235CD8A01200000E226E000E11
:1008A800216E000E246E000E236E120021C04DF042
:1008B80022C04EF04E50000AD8A412004D50000A33
:1008C800D8B4A6D7010AD8B4AAD7030AD8B4C9D7C6
:1008D800010AD8A41200CCD735043610D8A41200C7
:1008E80033503410D8A428D0000E4E6E010E4D6E31
:1008F80009EC00F04D5011108B6E000E4E6E020E7A
:100908004D6E09EC00F04D5013108C6E000E4E6EBB
:10091800030E4D6E09EC00F04D5015108D6E000E53
:100928004E6E040E4D6E09EC00F04D5017108E6E91
:10093800000E346E010E2FD033043410D8A42CD0FE
:10094800000E4E6E010E4D6E09EC00F04D50FF0A80
:1009580011148B6E000E4E6E020E4D6E09EC00F0F7
:100968004D50FF0A13148C6E000E4E6E030E4D6E22
:1009780009EC00F04D50FF0A15148D6E000E4E6EF6
:10098800040E4D6E09EC00F04D50FF0A17148E6EE0
:10099800000E346E000E336E000E366E000E356E8D
:1009A80012002FC043F030C044F0000E466E0A0E0D
:1009B800456E05EC07F043C049F044C04AF0495081
:1009C8004A10D8A402D03F0E3DD049044A10D8A4FA
:1009D80002D0060E37D0020E49184A10D8A402D009
:1009E8005B0E30D0030E49184A10D8A402D04F0E1F
:1009F80029D0040E49184A10D8A402D0660E22D075
:100A0800050E49184A10D8A402D06D0E1BD0060E48
:100A180049184A10D8A402D07D0E14D0070E4918E0
:100A28004A10D8A402D0070E0DD0080E49184A1053
:100A3800D8A402D07F0E06D0090E49184A10D8A4AF
:100A480002D06F0E916E080E906E010E2524436E33
:100A5800000E2620446E000E466E030E456E05EC11
:100A680007F043C025F044C026F01200000E1A6EAD
:100A7800000E196ED6EC08F031503210D8A409D007
:100A8800000E026E010E016E000E0A6E010E096E56
:100A9800120031043210D8A421D0000E0A6E010EC3
:100AA800096E09C001F00AC002F0000E046E020EC1
:100AB800036E000E0C6E010E0B6E000E066E010E1C
:100AC800056E000E0E6E020E0D6E000E106E020EFA
:100AD8000F6E0FC007F010C008F01200020E311898
:100AE8003210D8A41200000E0A6E010E096E09C059
:100AF80001F00AC002F0000E046E020E036E000E32
:100B08000C6E010E0B6E000E106E020E0F6E0FC0F3
:100B180007F010C008F01200000E526E50AE06D05A
:100B28004F6C501ED8B0502A010E526E4EAE06D0F1
:100B38004D6C4E1ED8B04E2A010E521A000E546E3D
:100B4800000E536E4F505010D8B41CD0010E516E89
:100B580004D0D8904F365036512A50AEFAD7D89094
:100B6800533654364F504D5C50504E58D8A005D08F
:100B78004F504D5E50504E5A5380D89050324F329D
:100B8800512EEDD75250D8B404D0536C541ED8B05F
:100B9800542A53C04DF054C04EF01200000E4E6E51
:100BA800010E4D6E09EC00F011504D1612504E1604
:100BB8004D504E10D8B405D0000E536E010E526E33
:100BC8001200000E4E6E020E4D6E09EC00F013502E
:100BD8004D1614504E164D504E10D8A4EDD7000E99
:100BE8004E6E030E4D6E09EC00F015504D16165062
:100BF8004E164D504E10D8A4DFD7000E4E6E040E80
:100C08004D6E09EC00F017504D1618504E164D5009
:100C18004E10D8A4D1D7000E536E000E526E12009B
:100C2800000E486E46AE06D0456C461ED8B0462A21
:100C3800010E486E44AE06D0436C441ED8B0442A18
:100C4800010E481A000E4A6E000E496E45504610B5
:100C5800D8B41CD0010E476E04D0D890453646361D
:100C6800472A46AEFAD7D89049364A364550435CAB
:100C780046504458D8A005D04550435E4650445A83
:100C88004980D89046324532472EEDD74850D8B4DF
:100C980004D0496C4A1ED8B04A2A49C043F04AC019
:100CA80044F012002FC04DF030C04EF0000E506ED0
:100CB8000A0E4F6E90EC05F04DC070F04EC071F00A
:100CC800000170517111D8A402D03F0E13D07005E5
:100CD8007111D8A402D0060E0DD0020E7019711130
:100CE800D8A402D05B0E06D0030E70197111D8A4D7
:100CF80002D04F0E916E040E906E010E25244D6E9B
:100D0800000E26204E6E000E506E030E4F6ECDEC78
:100D180006F04DC025F04EC026F012002FC043F05B
:100D280030C044F0000E466E0A0E456E14EC06F014
:100D380043C04BF044C04CF04B504C10D8A402D0E8
:100D48003F0E13D04B044C10D8A402D0060E0DD081
:100D5800020E4B184C10D8A402D05B0E06D0030E1E
:100D68004B184C10D8A402D04F0E916E040E906E02
:100D7800010E2524436E000E2620446E000E466E9A
:100D8800030E456E05EC07F043C025F044C026F07D
:100D98001200000E526E4EAE06D04D6C4E1ED8B0EC
:100DA8004E2A010E526E50AE04D04F6C501ED8B071
:100DB800502A4F505010D8B418D0010E516E04D09C
:100DC800D8904F365036512A50AEFAD74F504D5C16
:100DD80050504E58D8A004D04F504D5E50504E5AE7
:100DE800D89050324F32512EF1D75250D8B404D047
:100DF8004D6C4E1ED8B04E2A4DC04DF04EC04EF030
:100E08001200000E486E44AE06D0436C441ED8B0A3
:100E1800442A010E486E46AE04D0456C461ED8B032
:100E2800462A45504610D8B418D0010E476E04D053
:100E3800D89045364636472A46AEFAD74550435CE1
:100E480046504458D8A004D04550435E4650445AB2
:100E5800D89046324532472EF1D74850D8B404D0FE
:100E6800436C441ED8B0442A43C043F044C044F005
:100E7800120027502810D8B41200080E09180A10BA
:100E8800D8B41200080E0B180C10D8B41200080EB3
:100E98000D180E10D8B41200080E0F181010D8B480
:100EA800120009500A10D8B402D0094A0A2A0D5073
:100EB8000E10D8B402D00D4A0E2A0B500C10D8B41C
:100EC80002D00B4A0C2A0F501010D8B402D00F4A87
:100ED800102A000E286E000E276E12002B502C10C0
:100EE800D8B41200040E01180210D8B41200040E6F
:100EF80005180610D8B41200040E07180810D8B444
:100F08001200040E03180410D8B412000150021085
:100F1800D8B402D0014A022A05500610D8B402D02B
:100F2800054A062A03500410D8B402D0034A042AFA
:100F380007500810D8B402D0074A082A000E2C6EB1
:100F4800000E2B6E12005AEC01F011EC09F060EC67
:100F580008F03AEC05F0F28E1CD0EDEC01F065ECEF
:100F680009F0C7EC00F00BEC04F072EC07F03BEC76
:100F780003F006EC08F0D0EC02F03DEC07F065EC6D
:100F880002F0D9EC07F071EC09F0B3EC08F070EC62
:100F980004F030BEE2D7305006E1200E2F5CD8B006
:100FA80007EF00F0DAD707EF00F02D502E10D8B475
:100FB800120001040210D8B4120005040610D8B4B7
:100FC800120001500210D8B403D00106D8A00206BE
:100FD80005500610D8B403D00506D8A0060603505D
:100FE8000410D8B403D00306D8A00406075008108C
:100FF800D8B403D00706D8A00806000E2E6E000E3F
:101008002D6E120029502A10D8B4120009040A10B3
:10101800D8B412000B040C10D8B4120009500A10EE
:10102800D8B403D00906D8A00A060D500E10D8B4BB
:1010380003D00D06D8A00E060B500C10D8B403D060
:101048000B06D8A00C060F501010D8B403D00F060A
:10105800D8A01006000E2A6E000E296E1200080E87
:1010680009180A10D8B41200080E0B180C10D8B4BE
:101078001200080E0D180E10D8B41200080E0F1822
:101088001010D8B4120009500A10D8B402D0094A76
:101098000A2A0B500C10D8B402D00B4A0C2A0D5057
:1010A8000E10D8B402D00D4A0E2A0F501010D8B422
:1010B80012000F4A102A1200000E4E6E000E4D6EDE
:1010C800000E506E000E4F6E000E526E000E516EE6
:1010D800514A522A52BEFCD7525004E1100E515CBC
:1010E800D8A0F6D74F4A502A50BEEED7505004E148
:1010F800A50E4F5CD8A0E8D74D4A4E2A4EBEE0D781
:101108004E5004E14D28D8B01200DAD7120006007C
:1011180078EC09F0F2A40BD03F4A402A000E366E54
:10112800010E356E670ED76E690ED66EF294F2A078
:1011380014D0F29081CF41F0426A37503810D8A4C9
:1011480008D0010E3A6EC20E396E000E386E010ECE
:10115800376E41C06EF042C06FF0559211003750A3
:101168003810D8B412003906D8A03A0639503A10C7
:10117800D8A4120081CF41F0426A41AA04D0000EDF
:101188003C6E010E3B6E41AC04D0000E3E6E010E6B
:101198003D6E41C06EF042C06FF0000E386E000E1A
:1011A800376E1200000E106E000E0F6E000E0E6EDF
:1011B800000E0D6E000E0C6E000E0B6E0BC009F0CB
:1011C8000CC00AF009C007F00AC008F007C005F013
:1011D80008C006F005C003F006C004F003C001F023
:1011E80004C002F0120031503210D8A403D02F4AA4
:1011F800302A120031043210D8A405D0040E2F264C
:10120800000E30221200020E31183210D8A412003B
:10121800030E2F26000E30221200000EA06E000EC4
:10122800F16EF18CF18AF18E000ED56ED58ED584D3
:10123800D592D580000ED06E670ED76E690ED66E29
:10124800000EF26EF28AF286F28C12003F0E916E58
:10125800030E906E010E25244D6E000E26204E6E54
:10126800000E506E030E4F6ECDEC06F04DC025F00B
:101278004EC026F012003F0E916E030E906E010EC6
:101288002524436E000E2620446E000E466E030E83
:10129800456E05EC07F043C025F044C026F0120067
:1012A80000EE60F0100EEE6AE806FDE100EE01F0D7
:1012B800420EEE6AE806FDE1559055920001A7EF4F
:1012C80007F0080E3F184010D8A4120033EC08F0BD
:1012D800000E406E000E3F6E1200A6EC03F056ECB6
:1012E80006F02AEC09F01200D5EC04F092EC06F0B6
:0612F8003FEC09F01200BA
:020000040020DA
:08000000FFFFFFFFFFFFFFFF00
:020000040030CA
:0E000000FF06191EF38381FFFFC0FFE0FF40E3
:00000001FF
